{
  "_format": "hh-sol-artifact-1",
  "contractName": "SequencerPortal",
  "sourceName": "contracts/SequencerPortal.sol",
  "abi": [
    {
      "inputs": [],
      "stateMutability": "payable",
      "type": "constructor"
    },
    {
      "anonymous": false,
      "inputs": [
        {
          "indexed": true,
          "internalType": "address",
          "name": "from",
          "type": "address"
        },
        {
          "indexed": false,
          "internalType": "uint256",
          "name": "timestamp",
          "type": "uint256"
        },
        {
          "indexed": false,
          "internalType": "string",
          "name": "sequence",
          "type": "string"
        }
      ],
      "name": "NewSequence",
      "type": "event"
    },
    {
      "inputs": [],
      "name": "getAllSequences",
      "outputs": [
        {
          "components": [
            {
              "internalType": "address",
              "name": "musician",
              "type": "address"
            },
            {
              "internalType": "string",
              "name": "sequence",
              "type": "string"
            },
            {
              "internalType": "uint256",
              "name": "timestamp",
              "type": "uint256"
            }
          ],
          "internalType": "struct SequencerPortal.Sequence[]",
          "name": "",
          "type": "tuple[]"
        }
      ],
      "stateMutability": "view",
      "type": "function"
    },
    {
      "inputs": [],
      "name": "getTotalSequences",
      "outputs": [
        {
          "internalType": "uint256",
          "name": "",
          "type": "uint256"
        }
      ],
      "stateMutability": "view",
      "type": "function"
    },
    {
      "inputs": [
        {
          "internalType": "address",
          "name": "",
          "type": "address"
        }
      ],
      "name": "lastSavedAt",
      "outputs": [
        {
          "internalType": "uint256",
          "name": "",
          "type": "uint256"
        }
      ],
      "stateMutability": "view",
      "type": "function"
    },
    {
      "inputs": [
        {
          "internalType": "string",
          "name": "_sequence",
          "type": "string"
        }
      ],
      "name": "saveSequence",
      "outputs": [],
      "stateMutability": "nonpayable",
      "type": "function"
    }
  ],
  "bytecode": "0x6080604052620000336040518060600160405280602f8152602001620012db602f91396200003960201b620006461760201c565b620001cd565b620000d98160405160240162000050919062000146565b6040516020818303038152906040527f41304fac000000000000000000000000000000000000000000000000000000007bffffffffffffffffffffffffffffffffffffffffffffffffffffffff19166020820180517bffffffffffffffffffffffffffffffffffffffffffffffffffffffff8381831617835250505050620000dc60201b60201c565b50565b60008151905060006a636f6e736f6c652e6c6f679050602083016000808483855afa5050505050565b600062000112826200016a565b6200011e818562000175565b93506200013081856020860162000186565b6200013b81620001bc565b840191505092915050565b6000602082019050818103600083015262000162818462000105565b905092915050565b600081519050919050565b600082825260208201905092915050565b60005b83811015620001a657808201518184015260208101905062000189565b83811115620001b6576000848401525b50505050565b6000601f19601f8301169050919050565b6110fe80620001dd6000396000f3fe608060405234801561001057600080fd5b506004361061004c5760003560e01c806345be925e146100515780636742d6c91461006d578063de3319b41461008b578063f68e1395146100a9575b600080fd5b61006b60048036038101906100669190610989565b6100d9565b005b610075610492565b6040516100829190610c8c565b60405180910390f35b6100936105e3565b6040516100a09190610d90565b60405180910390f35b6100c360048036038101906100be9190610960565b61062e565b6040516100d09190610d90565b60405180910390f35b42601e600360003373ffffffffffffffffffffffffffffffffffffffff1673ffffffffffffffffffffffffffffffffffffffff168152602001908152602001600020546101269190610ead565b10610166576040517f08c379a000000000000000000000000000000000000000000000000000000000815260040161015d90610d70565b60405180910390fd5b42600360003373ffffffffffffffffffffffffffffffffffffffff1673ffffffffffffffffffffffffffffffffffffffff1681526020019081526020016000208190555060016000808282546101bc9190610ead565b925050819055506102026040518060400160405280601581526020017f257320736176656420612073657175656e636520210000000000000000000000815250336106df565b600260405180606001604052803373ffffffffffffffffffffffffffffffffffffffff16815260200183815260200142815250908060018154018082558091505060019003906000526020600020906003020160009091909190915060008201518160000160006101000a81548173ffffffffffffffffffffffffffffffffffffffff021916908373ffffffffffffffffffffffffffffffffffffffff16021790555060208201518160010190805190602001906102c1929190610840565b50604082015181600201555050606460015442446102df9190610ead565b6102e99190610ead565b6102f39190610fb3565b60018190555060326001541161043f576103426040518060400160405280600781526020017f257320776f6e2100000000000000000000000000000000000000000000000000815250336106df565b6000655af3107a4000905047811115610390576040517f08c379a000000000000000000000000000000000000000000000000000000000815260040161038790610d30565b60405180910390fd5b60003373ffffffffffffffffffffffffffffffffffffffff16826040516103b690610c77565b60006040518083038185875af1925050503d80600081146103f3576040519150601f19603f3d011682016040523d82523d6000602084013e6103f8565b606091505b505090508061043c576040517f08c379a000000000000000000000000000000000000000000000000000000000815260040161043390610d50565b60405180910390fd5b50505b3373ffffffffffffffffffffffffffffffffffffffff167fc4e557be3be1a9d0ff986fa886bc304ac7e0e98b5442d2af4a6a6872dc3bfd384283604051610487929190610dab565b60405180910390a250565b60606002805480602002602001604051908101604052809291908181526020016000905b828210156105da57838290600052602060002090600302016040518060600160405290816000820160009054906101000a900473ffffffffffffffffffffffffffffffffffffffff1673ffffffffffffffffffffffffffffffffffffffff1673ffffffffffffffffffffffffffffffffffffffff16815260200160018201805461053f90610f81565b80601f016020809104026020016040519081016040528092919081815260200182805461056b90610f81565b80156105b85780601f1061058d576101008083540402835291602001916105b8565b820191906000526020600020905b81548152906001019060200180831161059b57829003601f168201915b50505050508152602001600282015481525050815260200190600101906104b6565b50505050905090565b60006106266040518060400160405280601b81526020017f5765206861766520256420746f74616c2073657175656e63657321000000000081525060005461077b565b600054905090565b60036020528060005260406000206000915090505481565b6106dc8160405160240161065a9190610cae565b6040516020818303038152906040527f41304fac000000000000000000000000000000000000000000000000000000007bffffffffffffffffffffffffffffffffffffffffffffffffffffffff19166020820180517bffffffffffffffffffffffffffffffffffffffffffffffffffffffff8381831617835250505050610817565b50565b61077782826040516024016106f5929190610cd0565b6040516020818303038152906040527f319af333000000000000000000000000000000000000000000000000000000007bffffffffffffffffffffffffffffffffffffffffffffffffffffffff19166020820180517bffffffffffffffffffffffffffffffffffffffffffffffffffffffff8381831617835250505050610817565b5050565b6108138282604051602401610791929190610d00565b6040516020818303038152906040527f9710a9d0000000000000000000000000000000000000000000000000000000007bffffffffffffffffffffffffffffffffffffffffffffffffffffffff19166020820180517bffffffffffffffffffffffffffffffffffffffffffffffffffffffff8381831617835250505050610817565b5050565b60008151905060006a636f6e736f6c652e6c6f679050602083016000808483855afa5050505050565b82805461084c90610f81565b90600052602060002090601f01602090048101928261086e57600085556108b5565b82601f1061088757805160ff19168380011785556108b5565b828001600101855582156108b5579182015b828111156108b4578251825591602001919060010190610899565b5b5090506108c291906108c6565b5090565b5b808211156108df5760008160009055506001016108c7565b5090565b60006108f66108f184610e0c565b610ddb565b90508281526020810184848401111561090e57600080fd5b610919848285610f3f565b509392505050565b600081359050610930816110b1565b92915050565b600082601f83011261094757600080fd5b81356109578482602086016108e3565b91505092915050565b60006020828403121561097257600080fd5b600061098084828501610921565b91505092915050565b60006020828403121561099b57600080fd5b600082013567ffffffffffffffff8111156109b557600080fd5b6109c184828501610936565b91505092915050565b60006109d68383610c09565b905092915050565b6109e781610f03565b82525050565b6109f681610f03565b82525050565b6000610a0782610e4c565b610a118185610e6f565b935083602082028501610a2385610e3c565b8060005b85811015610a5f5784840389528151610a4085826109ca565b9450610a4b83610e62565b925060208a01995050600181019050610a27565b50829750879550505050505092915050565b6000610a7c82610e57565b610a868185610e8b565b9350610a96818560208601610f4e565b610a9f816110a0565b840191505092915050565b6000610ab582610e57565b610abf8185610e9c565b9350610acf818560208601610f4e565b610ad8816110a0565b840191505092915050565b6000610af0603483610e9c565b91507f547279696e6720746f207769746864726177206d6f7265206d6f6e657920746860008301527f616e2074686520636f6e7472616374206861732e0000000000000000000000006020830152604082019050919050565b6000610b56602783610e9c565b91507f4661696c656420746f207769746864726177206d6f6e65792066726f6d20636f60008301527f6e74726163742e000000000000000000000000000000000000000000000000006020830152604082019050919050565b6000610bbc600883610e9c565b91507f57616974203330730000000000000000000000000000000000000000000000006000830152602082019050919050565b6000610bfc600083610e80565b9150600082019050919050565b6000606083016000830151610c2160008601826109de565b5060208301518482036020860152610c398282610a71565b9150506040830151610c4e6040860182610c59565b508091505092915050565b610c6281610f35565b82525050565b610c7181610f35565b82525050565b6000610c8282610bef565b9150819050919050565b60006020820190508181036000830152610ca681846109fc565b905092915050565b60006020820190508181036000830152610cc88184610aaa565b905092915050565b60006040820190508181036000830152610cea8185610aaa565b9050610cf960208301846109ed565b9392505050565b60006040820190508181036000830152610d1a8185610aaa565b9050610d296020830184610c68565b9392505050565b60006020820190508181036000830152610d4981610ae3565b9050919050565b60006020820190508181036000830152610d6981610b49565b9050919050565b60006020820190508181036000830152610d8981610baf565b9050919050565b6000602082019050610da56000830184610c68565b92915050565b6000604082019050610dc06000830185610c68565b8181036020830152610dd28184610aaa565b90509392505050565b6000604051905081810181811067ffffffffffffffff82111715610e0257610e01611071565b5b8060405250919050565b600067ffffffffffffffff821115610e2757610e26611071565b5b601f19601f8301169050602081019050919050565b6000819050602082019050919050565b600081519050919050565b600081519050919050565b6000602082019050919050565b600082825260208201905092915050565b600081905092915050565b600082825260208201905092915050565b600082825260208201905092915050565b6000610eb882610f35565b9150610ec383610f35565b9250827fffffffffffffffffffffffffffffffffffffffffffffffffffffffffffffffff03821115610ef857610ef7610fe4565b5b828201905092915050565b6000610f0e82610f15565b9050919050565b600073ffffffffffffffffffffffffffffffffffffffff82169050919050565b6000819050919050565b82818337600083830152505050565b60005b83811015610f6c578082015181840152602081019050610f51565b83811115610f7b576000848401525b50505050565b60006002820490506001821680610f9957607f821691505b60208210811415610fad57610fac611042565b5b50919050565b6000610fbe82610f35565b9150610fc983610f35565b925082610fd957610fd8611013565b5b828206905092915050565b7f4e487b7100000000000000000000000000000000000000000000000000000000600052601160045260246000fd5b7f4e487b7100000000000000000000000000000000000000000000000000000000600052601260045260246000fd5b7f4e487b7100000000000000000000000000000000000000000000000000000000600052602260045260246000fd5b7f4e487b7100000000000000000000000000000000000000000000000000000000600052604160045260246000fd5b6000601f19601f8301169050919050565b6110ba81610f03565b81146110c557600080fd5b5056fea2646970667358221220bd7b00a49d623dffb90d845b658939fd8e802f13c39730884f430d49e2bd2d4664736f6c634300080000334920616d20696e20534320636f6e7374727563746f7220616e642073686f756c642072756e206f6e6c79206f6e6365",
  "linkReferences": {},
  "deployedLinkReferences": {}
}